:100000000C945F000C9487000C9487000C9487007C
:100010000C9487000C9487000C9487000C94870044
:100020000C9487000C9487000C9487000C94870034
:100030000C9487000C9487000C9487000C94870024
:100040000C9475040C9487000C944B020C947D0264
:100050000C9487000C9487000C9487000C94870004
:100060000C9487000C948700000000080002010037
:100070000003040700000000000000000102040863
:100080001020408001020408102001020408102002
:10009000040404040404040402020202020203032E
:1000A0000303030300000000250028002B000000CC
:1000B0000000240027002A00A000AD02A6001124A1
:1000C0001FBECFEFD8E0DEBFCDBF11E0A0E0B1E0B2
:1000D000E0EEF0E102C005900D92A232B107D9F72F
:1000E00021E0A2E2B1E001C01D92A23DB207E1F71A
:1000F00010E0CEE5D0E004C02197FE010E941A0670
:10010000CC35D107C9F70E9466040C9463080C949F
:10011000000061E08DE00E948D0561E080910801A2
:100120000E948D0561E0809106010E948D0526E008
:1001300040E051EE60E070E088E291E00C94E9016B
:100140006EE071E082E291E00C94DA0382E291E0E9
:100150000C946B030F931F93CF93DF9300D000D0C9
:1001600000D0CDB7DEB788E291E00E940F011816EB
:100170001906E4F54AE068E271E0CE0101960E94BA
:100180004303BE016F5F7F4F82E291E00E94EF0365
:10019000CE0101960E946B0362E271E088E291E079
:1001A0000E9407036AE071E0CE0101960E94DA0323
:1001B000BE016F5F7F4F82E291E00E9461048C017B
:1001C000CE0101960E946B0361E017FD1AC0809179
:1001D00006010E94C90564EF71E080E090E00E9492
:1001E000F00460E0809106010E94C90526960FB6D2
:1001F000F894DEBF0FBECDBFDF91CF911F910F915D
:100200000895809108010E94C90564EF71E080E0C3
:1002100090E00E94F00460E080910801E5CFFC01CD
:10022000918D228D892F90E0805C9F4F821B9109D8
:100230008F7399270895FC01918D828D981731F065
:10024000828DE80FF11D858D90E008958FEF9FEF6F
:100250000895FC01918D828D981761F0A28DAE0FEB
:10026000BF2FB11D5D968C91928D9F5F9F73928F72
:1002700090E008958FEF9FEF0895FC01538D448D1A
:10028000252F30E0842F90E0821B930B541710F041
:10029000CF9608950197089583EA92E0892B49F05B
:1002A00080E090E0892B29F00E94A30281110C9438
:1002B00000000895FC01A48DA80FB92FB11DA35A09
:1002C000BF4F2C91848D90E001968F739927848F76
:1002D000A689B7892C93A089B1898C918370806499
:1002E0008C93938D848D981306C00288F389E02D3A
:1002F00080818F7D80830895CF93DF93EC01888D7B
:100300008823B9F0AA89BB89E889F9898C9185FD90
:1003100003C0808186FD0DC00FB607FCF7CF8C911E
:1003200085FFF2CF808185FFEDCFCE010E945A017B
:10033000E9CFDF91CF910895EF92FF920F931F9332
:10034000CF93DF93EC0181E0888F9B8D8C8D981388
:100350001AC0E889F989808185FF15C09FB7F89494
:10036000EE89FF896083E889F989808183708064E0
:1003700080839FBF81E090E0DF91CF911F910F912B
:10038000FF90EF900895F62E0B8D10E00F5F1F4F3A
:100390000F731127E02E8C8D8E110CC00FB607FC49
:1003A000FACFE889F989808185FFF5CFCE010E94D7
:1003B0005A01F1CFEB8DEC0FFD2FF11DE35AFF4FEA
:1003C000F0829FB7F8940B8FEA89FB898081806265
:1003D000CFCFCF92DF92EF92FF921F93CF93DF9315
:1003E000EC016A017B01122FE889F98982E08083A0
:1003F000C11481EED806E104F104A1F060E079E0D7
:100400008DE390E0A70196010E94F8052150310983
:10041000410951095695479537952795211580E152
:10042000380798F0E889F989108260E874E88EE16D
:1004300090E0A70196010E94F80521503109410979
:1004400051095695479537952795EC85FD8530835D
:10045000EE85FF852083188EEC89FD891083EA895B
:10046000FB89808180618083EA89FB898081886043
:100470008083EA89FB89808180688083EA89FB899F
:1004800080818F7D8083DF91CF911F91FF90EF90CE
:10049000DF90CF9008951F920F920FB60F92112404
:1004A0002F938F939F93EF93FF93E0913801F091F7
:1004B00039018081E0913E01F0913F0182FD1BC036
:1004C0009081809141018F5F8F732091420182174B
:1004D00041F0E0914101F0E0E85DFE4F958F80939F
:1004E0004101FF91EF919F918F912F910F900FBE3E
:1004F0000F901F9018958081F4CF1F920F920FB626
:100500000F9211242F933F934F935F936F937F9399
:100510008F939F93AF93BF93EF93FF9388E291E004
:100520000E945A01FF91EF91BF91AF919F918F91DE
:100530007F916F915F914F913F912F910F900FBEDF
:100540000F901F90189588E291E00E940F0121E022
:10055000892B09F420E0822F0895E8E2F1E013826C
:10056000128288EE93E0A0E0B0E084839583A683B6
:10057000B78383E191E09183808385EC90E0958758
:10058000848784EC90E09787868780EC90E0918B5D
:10059000808B81EC90E0938B828B82EC90E0958B4A
:1005A000848B86EC90E0978B868B118E128E138E47
:1005B000148E0895AF92BF92CF92DF92EF92FF9286
:1005C0000F931F93CF93DF936C017B018B01040F7B
:1005D000151FEB015E01AE18BF08C017D10759F017
:1005E0006991D601ED91FC910190F081E02DC60159
:1005F0000995892B79F7C501DF91CF911F910F9153
:10060000FF90EF90DF90CF90BF90AF900895DB0107
:1006100014964D915C9115976D917C91DC01ED9153
:10062000FC910280F381E02D09940F931F93CF93E7
:10063000DF93EC010E94BF04688779878A879B87D4
:10064000E881F9810284F385E02DCE01099597FFB9
:1006500015C00E94BF04088519852A853B85601B4B
:10066000710B820B930B0C811D812E813F816017D2
:1006700071078207930720F38FEF9FEFDF91CF91F0
:100680001F910F910895EF92FF920F931F93CF93B5
:10069000DF93EC017B01042F6EE071E00E94DA032E
:1006A000C7010E941503002E000C110B97FD0BC013
:1006B0000817190741F0682FCE010E943204C701C4
:1006C0000E941503F3CFCE01DF91CF911F910F91BF
:1006D000FF90EF900895FC01808191810C94BC06FD
:1006E000CF93DF93EC0188819981009711F00E94EC
:1006F000BC06198218821D821C821B821A82DF911D
:10070000CF9108950F931F93CF93DF93EC018B014B
:100710006F5F7F4F888199810E944507009751F054
:10072000998388831B830A8381E0DF91CF911F9196
:100730000F91089580E0F9CFCF93DF93EC0188818A
:100740009981892B49F08A819B818617970720F030
:1007500081E0DF91CF910895CE010E94820388232A
:10076000C1F38C819D81892B99F7E881F9811082F1
:10077000EFCFEF92FF920F931F93CF93DF93EC0194
:100780007B018A01BA010E949C0381110BC0CE013A
:100790000E947003CE01DF91CF911F910F91FF90C6
:1007A000EF9008951D830C83B701888199810E9481
:1007B0000B08F0CFFC011182108213821282158285
:1007C00014826115710551F0FB0101900020E9F7D9
:1007D0003197AF01461B570B0C94B9030895CF9383
:1007E000DF93EC01FB018617970749F06081718167
:1007F0006115710541F0448155810E94B903CE0114
:10080000DF91CF9108950E947003F9CFEF92FF928C
:100810000F931F93CF93DF936115710541F480E02F
:10082000DF91CF911F910F91FF90EF9008954115A7
:100830005105B1F07B01EC010C811D81040F151FE6
:10084000B8010E949C03882351F3288139818C814F
:100850009D81B701820F931F0E940B081D830C839B
:1008600081E0DECFCF93DF9300D0CDB7DEB76983D1
:100870001A8241E050E0BE016F5F7F4F0E94060484
:100880000F900F90DF91CF910895CF93DF93FC01EC
:10089000248135814217530788F4C081D181FB013F
:1008A00060817181CE01840F951F0E94120800970C
:1008B00029F08C1B9D0BDF91CF9108958FEF9FEF57
:1008C000FACF50E040E00C94450408950E942905B9
:1008D0000E9465040E948900CCE4D1E00E94AA0035
:1008E0002097E1F30E944C01F9CF1F920F920FB6AF
:1008F0000F9211242F933F938F939F93AF93BF93A6
:100900008091C6019091C701A091C801B091C90121
:100910003091C50123E0230F2D3758F50196A11D15
:10092000B11D2093C5018093C6019093C701A09388
:10093000C801B093C9018091CA019091CB01A091E7
:10094000CC01B091CD010196A11DB11D8093CA01CA
:100950009093CB01A093CC01B093CD01BF91AF9107
:100960009F918F913F912F910F900FBE0F901F90ED
:10097000189526E8230F0296A11DB11DD2CF2FB7DF
:10098000F8946091C6017091C7018091C80190915F
:10099000C9012FBF08953FB7F8948091CA01909183
:1009A000CB01A091CC01B091CD0126B5A89B05C08B
:1009B0002F3F19F00196A11DB11D3FBFBA2FA92FDE
:1009C000982F8827BC01CD01620F711D811D911DDB
:1009D00042E0660F771F881F991F4A95D1F7089547
:1009E0008F929F92AF92BF92CF92DF92EF92FF923F
:1009F0006B017C010E94CB044B015C01C114D1044A
:100A0000E104F104E9F00E94F7050E94CB046819A3
:100A100079098A099B09683E73408105910570F345
:100A200021E0C21AD108E108F10888EE880E83E0BF
:100A3000981EA11CB11CC114D104E104F10429F7D2
:100A4000FF90EF90DF90CF90BF90AF909F908F90EE
:100A50000895789484B5826084BD84B5816084BD36
:100A600085B5826085BD85B5816085BDEEE6F0E027
:100A7000808181608083E1E8F0E010828081826083
:100A80008083808181608083E0E8F0E08081816004
:100A90008083E1EBF0E0808184608083E0EBF0E034
:100AA000808181608083EAE7F0E0808184608083D8
:100AB0008081826080838081816080838081806882
:100AC00080831092C1000895833081F028F4813032
:100AD00099F08230A9F008958730A9F08830C9F0E4
:100AE0008430B1F4809180008F7D03C080918000BC
:100AF0008F7780938000089584B58F7784BD0895A3
:100B000084B58F7DFBCF8091B0008F778093B0004C
:100B100008958091B0008F7DF9CFCF93DF9390E05F
:100B2000FC01E458FF4F249180579F4FFC018491B2
:100B30008823C9F090E0880F991FFC01E255FF4F10
:100B4000A591B491FC01EC55FF4FC591D491611171
:100B50000DC09FB7F8948C91209582238C93888147
:100B6000282328839FBFDF91CF910895623051F4ED
:100B70009FB7F8943C91822F809583238C93E881D2
:100B80002E2BEFCF8FB7F894EC912E2B2C938FBF99
:100B9000EACF1F93CF93DF93282F30E0F901E85974
:100BA000FF4F8491F901E458FF4FD491F901E057C8
:100BB000FF4FC491CC23A9F0162F81110E94640528
:100BC000EC2FF0E0EE0FFF1FEC55FF4FA591B49115
:100BD0008FB7F894EC91111108C0D095DE23DC9307
:100BE0008FBFDF91CF911F910895DE2BF8CF08952D
:100BF000A1E21A2EAA1BBB1BFD010DC0AA1FBB1F21
:100C0000EE1FFF1FA217B307E407F50720F0A21B92
:100C1000B30BE40BF50B661F771F881F991F1A94FF
:100C200069F760957095809590959B01AC01BD0129
:100C3000CF010895EE0FFF1F0590F491E02D099468
:100C40000F931F93CF93DF938230910510F482E0CE
:100C500090E0E091D001F091D10130E020E0B0E0EF
:100C6000A0E0309799F42115310509F44AC0281BFA
:100C7000390B24303105D8F58A819B8161157105C6
:100C800089F1FB0193838283FE0111C04081518170
:100C90000281138148175907E0F04817590799F462
:100CA000109761F012960C93129713961C9332963C
:100CB000CF01DF91CF911F910F9108950093D00143
:100CC0001093D101F4CF2115310551F0421753078C
:100CD00038F0A901DB019A01BD01DF01F801C1CFA4
:100CE000EF01F9CF9093D1018093D001CDCFFE01D8
:100CF000E20FF31F819391932250310939832883A6
:100D0000D7CF2091CE013091CF01232B41F42091F8
:100D10000201309103013093CF012093CE01209145
:100D20000001309101012115310541F42DB73EB785
:100D30004091040150910501241B350BE091CE0137
:100D4000F091CF01E217F307A0F42E1B3F0B2817F9
:100D5000390778F0AC014E5F5F4F2417350748F034
:100D60004E0F5F1F5093CF014093CE01819391931B
:100D70009FCFF0E0E0E09CCFCF93DF930097E9F0C6
:100D8000FC01329713821282A091D001B091D1015F
:100D9000ED0130E020E01097A1F420813181820F35
:100DA000931F2091CE013091CF012817390709F008
:100DB00061C0F093CF01E093CE01DF91CF91089510
:100DC000EA01CE17DF07E8F54A815B819E014115F4
:100DD0005105B1F7E901FB83EA8349915991C40FA9
:100DE000D51FEC17FD0761F4808191810296840F75
:100DF000951FE90199838883828193819B838A83EC
:100E0000F0E0E0E012968D919C9113970097B9F570
:100E10002D913C911197CD010296820F931F209145
:100E2000CE013091CF012817390739F6309751F5A7
:100E30001092D1011092D001B093CF01A093CE01B6
:100E4000BCCFD383C28340815181840F951FC817C3
:100E5000D90761F44E5F5F4F88819981480F591F10
:100E6000518340838A819B8193838283211531053D
:100E700009F0B0CFF093D101E093D0019ECFFD01F6
:100E8000DC01C0CF13821282D7CFB0E0A0E0EBE448
:100E9000F7E00C942E088C01009751F4CB010E94CE
:100EA00020068C01C801CDB7DEB7E0E10C944A08FA
:100EB000FC01E60FF71F9C0122503109E217F307EE
:100EC00008F49DC0D901CD91DC911197C617D707C1
:100ED00098F0C530D10530F3CE01049786179707F7
:100EE00008F3C61BD70B2297C193D1936D937C93C4
:100EF000CF010E94BC06D6CF5B01AC1ABD0A4C01E3
:100F00008C0E9D1EA091D001B091D101512C412C8D
:100F1000F12CE12C109731F58091CE019091CF0109
:100F20008815990509F05CC04616570608F058C0A8
:100F30008091000190910101009741F48DB79EB717
:100F40004091040150910501841B950BE817F907A6
:100F500008F055C0F093CF01E093CE01F901718301
:100F60006083A0CF8D919C91119712966C901297EF
:100F700013967C901397A815B90559F56C0142E0BA
:100F8000C40ED11CCA14DB0420F1AC014A195B0960
:100F9000DA011296159780F0628273825183408342
:100FA000D9016D937C93E114F10471F0D70113968C
:100FB000FC93EE93129776CF22968C0F9D1FF9012A
:100FC00091838083F301EFCFF093D101E093D001BF
:100FD00069CF4816590608F42C017D01D3019ACF38
:100FE000CB010E9420067C01009749F0AE01B801B8
:100FF0000E940208C8010E94BC06870153CF10E07E
:1010000000E050CFFB01DC0102C001900D92415085
:101010005040D8F70895FB01DC0101900D920020AB
:10102000E1F70895FB0151915523A9F0BF01DC01BF
:101030004D9145174111E1F759F4CD010190002080
:1010400049F04D9140154111C9F3FB014111EFCF1A
:1010500081E090E0019708952F923F924F925F9226
:101060006F927F928F929F92AF92BF92CF92DF92B8
:10107000EF92FF920F931F93CF93DF93CDB7DEB71D
:10108000CA1BDB0B0FB6F894DEBF0FBECDBF0994B1
:101090002A88398848885F846E847D848C849B8408
:1010A000AA84B984C884DF80EE80FD800C811B8116
:1010B000AA81B981CE0FD11D0FB6F894DEBF0FBE45
:1010C000CDBFED01089510E0CEE5D0E004C0FE01F3
:1010D0000E941A062196CF35D107C9F7F894FFCFA1
:1010E0000000D201800004000300746573740000E6
:1010F0000000009C01DA023D017C010F0129011B67
:021100000100EC
:00000001FF
